:020000040000FA
:10000000A8020010690100007101000073010000E6
:100010007501000077010000790100000000000078
:100020000000000000000000000000007B01000054
:100030007D010000000000007F0100008101000040
:1000400083010000830100008301000083010000A0
:100050008301000083010000830100008301000090
:100060008301000083010000830100008301000080
:100070008301000083010000830100008301000070
:100080008301000083010000830100008301000060
:100090008301000083010000830100008301000050
:1000A0008301000083010000830100008301000040
:1000B0008301000083010000830100008301000030
:1000C00083010000830100008301000000F002F8BA
:1000D00000F03AF80AA090E8000C82448344AAF1A8
:1000E0000107DA4501D100F02FF8AFF2090EBAE8A6
:1000F0000F0013F0010F18BFFB1A43F0010318475C
:100100006006000080060000103A24BF78C878C15D
:10011000FAD8520724BF30C830C144BF04680C600D
:10012000704700000023002400250026103A28BF55
:1001300078C1FBD8520728BF30C148BF0B60704759
:100140001FB51FBD10B510BD00F0A6F81146FFF792
:10015000F7FF00F0D5F800F0C4F803B4FFF7F2FFA2
:1001600003BC00F0F7FA000009488047094800473F
:10017000FEE7FEE7FEE7FEE7FEE7FEE7FEE7FEE757
:10018000FEE7FEE704480549034A054B70470000B7
:10019000BD060000CD000000A8000010A80200105D
:1001A000A800001053EA020C00F069802DE9F04B22
:1001B0004FF00006002B1FBFB3FA83F503FA05F4D6
:1001C00024FA05F65E4012BF1643B2FA82F502FA2F
:1001D00005F4C5F120051EBF22FA05FC44EA0C0413
:1001E000203556EA044C4FEA144418BF641C4FF003
:1001F00000084FF00009904271EB030C39D300293D
:1002000019BFB1FA81F701FA07F6B0FA80F700FAE0
:1002100007F6C7F120071EBF20FA07FC46EA0C06C6
:100220002037B6FBF4FCA7EB0507103F07F01F0BC8
:10023000CBF120060CFA0BFB2CFA06F644BFB346B2
:100240000026202FA4BF5E464FF0000B5BEA060C91
:1002500008BF4FF0010B19EB0B09ABFB027C48EB1D
:100260000608C01B06FB02CC0BFB03CC71EB0C0198
:10027000C1E70B46024641464846BDE8F08B13B540
:100280004FF000004FF00001AFF30080BDE81C40CC
:100290007047704770477047754600F029F8AE46C2
:1002A00005006946534620F00700854618B020B582
:1002B000FFF768FFBDE820404FF000064FF0000751
:1002C0004FF000084FF0000B21F00701AC46ACE8FE
:1002D000C009ACE8C009ACE8C009ACE8C0098D466B
:1002E00070470446AFF300802046FFF736FF00005A
:1002F000004870474400001070470000FFFFFFFFF8
:1003000000F0DCF900F006F9784800687849084008
:10031000764908600846C06820F47F10C8607548B8
:10032000008840F47F60734908800846408C40F4A0
:10033000F06048840846008A4FF20F0108436D4977
:1003400008826C482030408A4FF67F010843694993
:1003500020314882C8E0002166482030C1826648CA
:100360006649096830F821006249888200206449A2
:10037000086004E062480068401C61490860604809
:10038000006842F210718842F4D34FF6FF71594869
:100390002030C1828021C18257485A49096830F80B
:1003A00021005449888200205549086004E05448DF
:1003B0000068401C524908605148006842F21071C0
:1003C0008842F4D34FF6FF714A482030C18241156C
:1003D000C18249484C49096830F821004549888262
:1003E00000204749086004E045480068401C444933
:1003F00008604348006842F210718842F4D34FF617
:10040000FF713C482030C1824FF4C071C1823A482C
:100410003E49096830F82100364988820020384971
:10042000086004E036480068401C354908603448DC
:10043000006842F210718842F4D34FF6FF712D48E4
:100440002030C1822D4800680A2807D100202B499E
:1004500008602C480068401C2A4908602948006848
:100460000A2807D100202749086027480068401C57
:1004700025490860244800680A2807D1002022493D
:10048000086022480068401C204908601F48006836
:100490000A2808D10020194908601A4908601A4939
:1004A00008601A49086000201549086004E01448F3
:1004B0000068401C124908601148006842F210713F
:1004C0008842F4D312480068401C1149086008466D
:1004D0000068B0F5FA6F07D108480068401C07496A
:1004E000086000200A49086035E7000000C00240AB
:1004F000FF0000FF00C00920000000102C000010C9
:100500003C000010300000103400001038000010D3
:10051000280000102DE9F04781480068C0F3016011
:1005200003287CD17F48006810F0030006D0012822
:1005300033D002285FD003282ED100E000BF7848D6
:100540000068C0F3074000F101044FF00201764853
:10055000D0F88800C0F30E0000F10100A1FB0001FB
:10056000724B4FF0000CA0FB037901FB039100FBE1
:100570000C11224663463846FFF714FE05466C48C8
:100580000068C0B200F1010422464FF00003284683
:10059000FFF708FE674908605DE061480068C0F346
:1005A000074000F101044FF002015F48D0F88800D5
:1005B000C0F30E0000F10100A1FB00105E4A4FF0F5
:1005C000000CA1FB027900FB029001FB0C0122460A
:1005D00063463846FFF7E6FD054655480068C0B259
:1005E00000F1010422464FF000032846FFF7DAFD30
:1005F000504908602FE04A480068C0F3074000F106
:1006000001044FF002014848D0F88800C0F30E0002
:1006100000F10100A1FB00124FF4004000E01BE0DC
:100620004FF00003A1FB007902FB009001FB0301E6
:1006300022463846FFF7B6FD05463D480068C0B281
:1006400000F1010422464FF000032846FFF7AAFDFF
:100650003849086000BF2FE03248006810F00300FE
:1006600006D0012810D0022819D0032823D100E099
:1006700000BF2F480068C0B200F101002B49B1FB58
:10068000F0F02C49086016E029480068C0B200F17B
:1006900001002949B1FBF0F0264908600BE024482D
:1006A0000068C0B200F101004FF40041B1FBF0F06E
:1006B0002049086000BF00BFBDE8F08720201F4927
:1006C00008601948D0F8A00110F0200F05D000BF35
:1006D0001A48006810F0400FFAD00320144908604F
:1006E00017481149C1F8A8011648174908604FF08A
:1006F00001000C4908604FF00400A1F104010860FA
:1007000012481349086040F201100749C1F8C801B6
:100710000846006820F4704040F48040086070474C
:1007200088C00F400CC10F4000C00F4000093D00C1
:1007300004C10F4040000010001BB700A0C10F40D3
:100740005551515555545554ACC10F40DEF7EFEF9C
:10075000C4C00F4001491820ABBEFEE726000200CE
:1007600080070000000000104400000008010000A5
:10077000C4070000440000106402000024010000CF
:10078000F003000060000000B0050000F00400006D
:1007900060060000D0060000D007000070000000D6
:1007A000F0070000F006000000000000000000005C
:1007B0000000000000000000000000000000000039
:0407C000C0C62D0082
:04000005000001698D
:00000001FF
