:020000040000FA
:10000000B8020010690100007101000073010000D6
:100010007501000077010000790100000000000078
:100020000000000000000000000000007B01000054
:100030007D010000000000007F0100008101000040
:1000400083010000830100008301000083010000A0
:100050008301000083010000830100008301000090
:100060008301000083010000830100008301000080
:100070008301000083010000830100008301000070
:100080008301000083010000830100008301000060
:100090008301000083010000830100008301000050
:1000A0008301000083010000830100008301000040
:1000B0008301000083010000830100008301000030
:1000C00083010000830100008301000000F002F8BA
:1000D00000F03AF80AA090E8000C82448344AAF1A8
:1000E0000107DA4501D100F02FF8AFF2090EBAE8A6
:1000F0000F0013F0010F18BFFB1A43F0010318475C
:100100006007000080070000103A24BF78C878C15B
:10011000FAD8520724BF30C830C144BF04680C600D
:10012000704700000023002400250026103A28BF55
:1001300078C1FBD8520728BF30C148BF0B60704759
:100140001FB51FBD10B510BD00F0A6F81146FFF792
:10015000F7FF00F011FA00F0C4F803B4FFF7F2FF64
:1001600003BC00F077FB00000948804709480047BE
:10017000FEE7FEE7FEE7FEE7FEE7FEE7FEE7FEE757
:10018000FEE7FEE704480549034A054B70470000B7
:10019000BD070000CD000000B8000010B80200103C
:1001A000B800001053EA020C00F069802DE9F04B12
:1001B0004FF00006002B1FBFB3FA83F503FA05F4D6
:1001C00024FA05F65E4012BF1643B2FA82F502FA2F
:1001D00005F4C5F120051EBF22FA05FC44EA0C0413
:1001E000203556EA044C4FEA144418BF641C4FF003
:1001F00000084FF00009904271EB030C39D300293D
:1002000019BFB1FA81F701FA07F6B0FA80F700FAE0
:1002100007F6C7F120071EBF20FA07FC46EA0C06C6
:100220002037B6FBF4FCA7EB0507103F07F01F0BC8
:10023000CBF120060CFA0BFB2CFA06F644BFB346B2
:100240000026202FA4BF5E464FF0000B5BEA060C91
:1002500008BF4FF0010B19EB0B09ABFB027C48EB1D
:100260000608C01B06FB02CC0BFB03CC71EB0C0198
:10027000C1E70B46024641464846BDE8F08B13B540
:100280004FF000004FF00001AFF30080BDE81C40CC
:100290007047704770477047754600F029F8AE46C2
:1002A00005006946534620F00700854618B020B582
:1002B000FFF768FFBDE820404FF000064FF0000751
:1002C0004FF000084FF0000B21F00701AC46ACE8FE
:1002D000C009ACE8C009ACE8C009ACE8C0098D466B
:1002E00070470446AFF300802046FFF736FF00005A
:1002F000004870475400001070470000FFFFFFFFE8
:10030000B6480068012808D1B5480068B5490860BA
:100310006FF0F060B449486325E0B04800680228F7
:1003200008D1B2480068AF4908606FF0E060AE499C
:10033000486318E0A9480068032808D1AC48006861
:10034000A84908606FF0D060A74948630BE0A34854
:100350000068042807D1A7480068A24908606FF028
:10036000C060A14948639F48007800F00F009D4994
:100370000860A148096850F82100A04908600846B3
:10038000006800010860084600689749486100203D
:100390009B49086004E09A480068401C984908603E
:1003A00097480068B0F5FA7FF5D37047002000E069
:1003B000401C42F210718842FAD3704700B568E0E1
:1003C000FFF7F4FF85480068401C84490860084630
:1003D0000068052824D101200860002089490860B0
:1003E00013E0FFF78DFF7D480068052803D1012049
:1003F0007A49086004E079480068401C7749086041
:1004000080480068401C7F4908607E480068B0F55D
:10041000FA7FE6D3002071490860FF207A4908601E
:1004200079480068FF2832D10020774908606C487D
:10043000006838BB09206A4908606C480068D8B970
:1004400009206A4908606A48006878B90920684943
:1004500008606848006818B909206649086016E015
:1004600064480068401E6349086010E06048006806
:10047000401E5F4908600AE05C480068401E5B4916
:10048000086004E056480068401E55490860FFF7C0
:1004900037FF5548406D10F0010F91D000BD00B5F9
:1004A00064E0FFF783FF4D480068401C4B4908603B
:1004B00008460068052824D1012008600020514921
:1004C000086013E0FFF71CFF44480068052803D1CB
:1004D00001204249086004E040480068401C3F4950
:1004E000086048480068401C464908604548006864
:1004F000B0F5FA7FE6D3002038490860FF20424972
:10050000086041480068FF282ED100203E4908605D
:1005100033480068401C32490860084600680A28D1
:1005200022D10020086031480068401C2F49086033
:10053000084600680A2817D1002008602C48006887
:10054000401C2B490860084600680A280CD100208E
:10055000086028480068401C264908600846006872
:100560000A2801D100200860FFF7CAFE1E48406D2E
:1005700010F0010F95D100BD00F020F900F04AF80D
:100580002248006822490840204908600846C0689F
:1005900020F47F10C8600846006920F040700861B0
:1005A0001148006840F47F600F4908600846006AFF
:1005B00040F0F06008621548006920F0020013491D
:1005C000086109E00848406D10F0010F02D0FFF704
:1005D00066FF01E0FFF7F2FEF4E7000010000010F4
:1005E000000000101400001000C0092004000010DA
:1005F000080000100C0000101C0000104400001047
:10060000480000104C0000101800001000C002400C
:10061000FF0000FF2DE9F04781480068C0F301604A
:1006200003287CD17F48006810F0030006D0012821
:1006300033D002285FD003282ED100E000BF7848D5
:100640000068C0F3074000F101044FF00201764852
:10065000D0F88800C0F30E0000F10100A1FB0001FA
:10066000724B4FF0000CA0FB037901FB039100FBE0
:100670000C11224663463846FFF794FD05466C4848
:100680000068C0B200F1010422464FF00003284682
:10069000FFF788FD674908605DE061480068C0F3C6
:1006A000074000F101044FF002015F48D0F88800D4
:1006B000C0F30E0000F10100A1FB00105E4A4FF0F4
:1006C000000CA1FB027900FB029001FB0C01224609
:1006D00063463846FFF766FD054655480068C0B2D8
:1006E00000F1010422464FF000032846FFF75AFDAF
:1006F000504908602FE04A480068C0F3074000F105
:1007000001044FF002014848D0F88800C0F30E0001
:1007100000F10100A1FB00124FF4004000E01BE0DB
:100720004FF00003A1FB007902FB009001FB0301E5
:1007300022463846FFF736FD05463D480068C0B200
:1007400000F1010422464FF000032846FFF72AFD7E
:100750003849086000BF2FE03248006810F00300FD
:1007600006D0012810D0022819D0032823D100E098
:1007700000BF2F480068C0B200F101002B49B1FB57
:10078000F0F02C49086016E029480068C0B200F17A
:1007900001002949B1FBF0F0264908600BE024482C
:1007A0000068C0B200F101004FF40041B1FBF0F06D
:1007B0002049086000BF00BFBDE8F08720201F4926
:1007C00008601948D0F8A00110F0200F05D000BF34
:1007D0001A48006810F0400FFAD00320144908604E
:1007E00017481149C1F8A8011648174908604FF089
:1007F00001000C4908604FF00400A1F104010860F9
:1008000012481349086040F201100749C1F8C801B5
:100810000846006820F4704040F48040086070474B
:1008200088C00F400CC10F4000C00F4000093D00C0
:1008300004C10F4050000010001BB700A0C10F40C2
:100840005551515555545554ACC10F40DEF7EFEF9B
:10085000C4C00F4001491820ABBEFEE726000200CD
:100860008008000000000010540000000801000093
:10087000D4080000540000106402000024010000AD
:100880000000000000000000000000000000000068
:100890000000000000000000000000003F00000019
:1008A000060000005B0000004F0000006600000032
:1008B0006D0000007D000000070000007F000000C8
:1008C0006F000000000000000000000000000000B9
:0408D000C0C62D0071
:04000005000001698D
:00000001FF
