:020000040000FA
:1000000098020010690100007101000073010000F6
:100010007501000077010000790100000000000078
:100020000000000000000000000000007B01000054
:100030007D010000000000007F0100008101000040
:1000400083010000830100008301000083010000A0
:100050008301000083010000830100008301000090
:100060008301000083010000830100008301000080
:100070008301000083010000830100008301000070
:100080008301000083010000830100008301000060
:100090008301000083010000830100008301000050
:1000A0008301000083010000830100008301000040
:1000B0008301000083010000830100008301000030
:1000C00083010000830100008301000000F002F8BA
:1000D00000F03AF80AA090E8000C82448344AAF1A8
:1000E0000107DA4501D100F02FF8AFF2090EBAE8A6
:1000F0000F0013F0010F18BFFB1A43F0010318475C
:100100001806000038060000103A24BF78C878C1ED
:10011000FAD8520724BF30C830C144BF04680C600D
:10012000704700000023002400250026103A28BF55
:1001300078C1FBD8520728BF30C148BF0B60704759
:100140001FB51FBD10B510BD00F0A6F81146FFF792
:10015000F7FF00F045F900F0C4F803B4FFF7F2FF31
:1001600003BC00F0D3FA0000094880470948004763
:10017000FEE7FEE7FEE7FEE7FEE7FEE7FEE7FEE757
:10018000FEE7FEE704480549034A054B70470000B7
:1001900075060000CD0000009800001098020010C5
:1001A0009800001053EA020C00F069802DE9F04B32
:1001B0004FF00006002B1FBFB3FA83F503FA05F4D6
:1001C00024FA05F65E4012BF1643B2FA82F502FA2F
:1001D00005F4C5F120051EBF22FA05FC44EA0C0413
:1001E000203556EA044C4FEA144418BF641C4FF003
:1001F00000084FF00009904271EB030C39D300293D
:1002000019BFB1FA81F701FA07F6B0FA80F700FAE0
:1002100007F6C7F120071EBF20FA07FC46EA0C06C6
:100220002037B6FBF4FCA7EB0507103F07F01F0BC8
:10023000CBF120060CFA0BFB2CFA06F644BFB346B2
:100240000026202FA4BF5E464FF0000B5BEA060C91
:1002500008BF4FF0010B19EB0B09ABFB027C48EB1D
:100260000608C01B06FB02CC0BFB03CC71EB0C0198
:10027000C1E70B46024641464846BDE8F08B13B540
:100280004FF000004FF00001AFF30080BDE81C40CC
:100290007047704770477047754600F029F8AE46C2
:1002A00005006946534620F00700854618B020B582
:1002B000FFF768FFBDE820404FF000064FF0000751
:1002C0004FF000084FF0000B21F00701AC46ACE8FE
:1002D000C009ACE8C009ACE8C009ACE8C0098D466B
:1002E00070470446AFF300802046FFF736FF00005A
:1002F000004870473800001070470000FFFFFFFF04
:1003000064480068012808D16348006863490860B0
:100310006FF0F0606249486325E05E48006802289B
:1003200008D1604800685D4908606FF0E0605C4992
:10033000486318E057480068032808D15A48006805
:10034000564908606FF0D060554948630BE051484A
:100350000068042807D155480068504908606FF0CC
:10036000C0604F4948634D48007800F001004B4998
:1003700008604F480968405C4E49086008460068BC
:1003800000010860084600684549486100204A4964
:10039000086004E048480068401C47490860464837
:1003A0000068B0F5FA7FF5D34FF47F603C49C8612F
:1003B0007047002000E0401CB0F57A7FFBD33F4936
:1003C0000968642906D1FF213D4A117000213B4A8A
:1003D000116004E039490968491C384A11607047C6
:1003E00000F048F900F072F83648006836490840D5
:1003F000344908600846C06820F47F10C860284867
:10040000006840F47F60264908600846006A40F0B2
:10041000F06008623DE0FFF7CCFF1E480068401C1A
:100420001C49086008460068052801D100200860C2
:1004300023480078FF282AD1002021490870164857
:100440000068C043144908600846006801281ED1AE
:10045000086014480068C0431249086008460068F4
:10046000012814D1086010480068C0430E49086094
:100470000846006801280AD108600C480068C0439B
:100480000A49086008460068012800D10860FFF7A3
:1004900037FFC0E714000010000000101800001023
:1004A00000C0092004000010080000100C0000101B
:1004B0001C000010280000102C000010100000107C
:1004C0002700001000C00240FF0000FF2DE9F047A8
:1004D00081480068C0F3016003287CD17F48006830
:1004E00010F0030006D0012833D002285FD0032883
:1004F0002ED100E000BF78480068C0F3074000F14B
:1005000001044FF002017648D0F88800C0F30E00D5
:1005100000F10100A1FB0001724B4FF0000CA0FBA9
:10052000037901FB039100FB0C1122466346384618
:10053000FFF738FE05466C480068C0B200F10104C0
:1005400022464FF000032846FFF72CFE674908605B
:100550005DE061480068C0F3074000F101044FF01E
:1005600002015F48D0F88800C0F30E0000F10100DE
:10057000A1FB00105E4A4FF0000CA1FB027900FBCA
:10058000029001FB0C01224663463846FFF70AFE43
:10059000054655480068C0B200F1010422464FF0FC
:1005A00000032846FFF7FEFD504908602FE04A4847
:1005B0000068C0F3074000F101044FF00201484811
:1005C000D0F88800C0F30E0000F10100A1FB00127A
:1005D0004FF4004000E01BE04FF00003A1FB007966
:1005E00002FB009001FB030122463846FFF7DAFDCB
:1005F00005463D480068C0B200F1010422464FF0B4
:1006000000032846FFF7CEFD3849086000BF2FE001
:100610003248006810F0030006D0012810D00228EC
:1006200019D0032823D100E000BF2F480068C0B2D2
:1006300000F101002B49B1FBF0F02C49086016E0F5
:1006400029480068C0B200F101002949B1FBF0F06F
:10065000264908600BE024480068C0B200F10100A0
:100660004FF40041B1FBF0F02049086000BF00BF2B
:10067000BDE8F08720201F4908601948D0F8A00184
:1006800010F0200F05D000BF1A48006810F0400F8E
:10069000FAD003201449086017481149C1F8A8018D
:1006A0001648174908604FF001000C4908604FF0E8
:1006B0000400A1F10401086012481349086040F2E7
:1006C00001100749C1F8C8010846006820F47040CD
:1006D00040F480400860704788C00F400CC10F4054
:1006E00000C00F4000093D0004C10F40340000105D
:1006F000001BB700A0C10F405551515555545554DA
:10070000ACC10F40DEF7EFEFC4C00F400149182025
:10071000ABBEFEE726000200380700000000001014
:1007200038000000080100007007000038000010C9
:100730006002000024010000010000000100000030
:1007400001000000010000000000000000000000A7
:10075000000000003F065B4F666D7D077F6F000065
:10076000000000000000000000000000C0C62D00D6
:04000005000001698D
:00000001FF
